:020000040800F2
:1000000000280020D95A0008911900089319000807
:1000100095190008971900089919000800000000B8
:100020000000000000000000000000005152000825
:100030009B19000800000000F15200083553000829
:10004000215B0008215B0008215B0008215B0008A0
:10005000215B0008215B0008215B0008215B000890
:10006000215B0008215B0008215B0008215B000880
:10007000215B0008215B0008215B0008215B000870
:10008000215B0008215B00089D190008215B000826
:10009000215B0008215B0008215B0008215B000850
:1000A000215B0008215B0008215B0008B1190008F2
:1000B000C5190008215B000800000000215B000852
:1000C000215B00080000000000000000215B000828
:1000D00000000000D9190008215B000800000000A2
:1000E000215B0008215B0008215B00080000000084
:1000F0000000000000000000000000000000000000
:0C01000000000000000000005FF808F1A3
:10011000034613F8012B002AFBD1181A0138704747
:1001200070B54FF0FF0C4CF4E06C1CEA11541DBF8D
:100130001CEA135594EA0C0F95EA0C0F00F0DEF858
:100140002C4481EA030621EA4C5123EA4C5350EA3D
:10015000013518BF52EA033541F4801143F480138E
:1001600038D0A0FB02CE4FF00005E1FB02E506F01F
:100170000042E0FB03E54FF00006E1FB03569CF074
:10018000000F18BF4EF0010EA4F1FF04B6F5007F7A
:1001900064F5407404D25FEA4E0E6D4146EB0606EC
:1001A00042EAC62141EA55514FEAC52040EA5E5075
:1001B0004FEACE2EB4F1FD0C88BFBCF5E06F1ED81F
:1001C000BEF1004F08BF5FEA500E50F1000041EB56
:1001D000045170BD06F0004646EA010140EA020003
:1001E00081EA0301B4EB5C04C2BFD4EB0C0541EA25
:1001F000045170BD41F480114FF0000E013C00F33A
:10020000AB8014F1360FDEBF002001F0004170BD5D
:10021000C4F10004203C35DA0C341BDC04F1140476
:10022000C4F1200500FA05F320FA04F001FA05F202
:1002300040EA020001F0004221F0004110EBD370CF
:1002400021FA04F642EB06015EEA430E08BF20EAFB
:10025000D37070BDC4F10C04C4F1200500FA04F39E
:1002600020FA05F001FA04F240EA020001F0004130
:1002700010EBD37041F100015EEA430E08BF20EAA3
:10028000D37070BDC4F1200500FA05F24EEA020EEB
:1002900020FA04F301FA05F243EA020321FA04F01A
:1002A00001F0004121FA04F220EA020000EBD370D1
:1002B0005EEA430E08BF20EAD37070BD94F0000FD1
:1002C0000FD101F00046400041EB010111F4801F05
:1002D00008BF013CF7D041EA060195F0000F18BFB6
:1002E000704703F00046520043EB030313F4801FF2
:1002F00008BF013DF7D043EA0603704794EA0C0FAC
:100300000CEA135518BF95EA0C0F0CD050EA4106C1
:1003100018BF52EA4306D1D181EA030101F000413E
:100320004FF0000070BD50EA410606BF1046194666
:1003300052EA430619D094EA0C0F02D150EA013672
:1003400013D195EA0C0F05D152EA03361CBF1046B3
:1003500019460AD181EA030101F0004141F0FE4152
:1003600041F470014FF0000070BD41F0FE4141F4D6
:10037000780170BD81F0004102E000BF83F00043CE
:1003800030B54FEA41044FEA430594EA050F08BF30
:1003900090EA020F1FBF54EA000C55EA020C7FEAF4
:1003A000645C7FEA655C00F0E2804FEA5454D4EB71
:1003B0005555B8BF6D420CDD2C4480EA020281EA3B
:1003C000030382EA000083EA010180EA020281EA73
:1003D0000303362D88BF30BD11F0004F4FEA0131C5
:1003E0004FF4801C4CEA113102D0404261EB4101D4
:1003F00013F0004F4FEA03334CEA133302D052425A
:1004000063EB430394EA050F00F0A780A4F1010415
:10041000D5F1200E0DDB02FA0EFC22FA05F280184F
:1004200041F1000103FA0EF2801843FA05F3594135
:100430000EE0A5F120050EF1200E012A03FA0EFCB4
:1004400028BF4CF0020C43FA05F3C01851EBE371DE
:1004500001F0004507D54FF0000EDCF1000C7EEBFB
:1004600000006EEB0101B1F5801F1BD3B1F5001F39
:100470000CD349085FEA30004FEA3C0C04F1010458
:100480004FEA445212F5800F80F09A80BCF1004F81
:1004900008BF5FEA500C50F1000041EB045141EA03
:1004A000050130BD5FEA4C0C404141EB0101013CCC
:1004B00028BFB1F5801FE9D291F0000F04BF0146BB
:1004C0000020B1FA81F308BF2033A3F10B03B3F18D
:1004D00020020CDA0C3208DD02F1140CC2F10C021D
:1004E00001FA0CF021FA02F10CE002F11402D8BF7B
:1004F000C2F1200C01FA02F120FA0CFCDCBF41EA47
:100500000C019040E41AA2BF01EB0451294330BD15
:100510006FEA04041F3C1CDA0C340EDC04F11404F2
:10052000C4F1200220FA04F001FA02F340EA0300C9
:1005300021FA04F345EA030130BDC4F10C04C4F10F
:10054000200220FA02F001FA04F340EA03002946EF
:1005500030BD21FA04F0294630BD94F0000F83F439
:10056000801306BF81F480110134013D4EE77FEA1C
:10057000645C18BF7FEA655C29D094EA050F08BF68
:1005800090EA020F05D054EA000C04BF1946104649
:1005900030BD91EA030F1EBF0021002030BD5FEA8D
:1005A000545C05D14000494128BF41F0004130BDB5
:1005B00014F580043CBF01F5801130BD01F0004509
:1005C00045F0FE4141F470014FF0000030BD7FEA7C
:1005D000645C1ABF194610467FEA655C1CBF0B4677
:1005E000024650EA013406BF52EA033591EA030F8E
:1005F00041F4002130BD00BF90F0000F04BF002186
:10060000704730B54FF4806404F132044FF00005B8
:100610004FF0000150E700BF90F0000F04BF002131
:10062000704730B54FF4806404F1320410F0004597
:1006300048BF40424FF000013EE700BF42004FEA92
:10064000E2014FEA31014FEA02701FBF12F07F430F
:1006500093F07F4F81F06051704732F07F4208BFC6
:10066000704793F07F4F04BF41F40021704730B5CD
:100670004FF4607401F0004521F000411CE700BF19
:1006800050EA010208BF704730B54FF000050AE09C
:1006900050EA010208BF704730B511F0004502D59D
:1006A000404261EB41014FF4806404F132045FEA9F
:1006B000915C3FF4D8AE4FF003025FEADC0C18BF48
:1006C00003325FEADC0C18BF033202EBDC02C2F13A
:1006D000200300FA03FC20FA02F001FA03FE40EACC
:1006E0000E0021FA02F11444BDE600BF4FEA4102B8
:1006F000B2F1E04324BFB3F5001CDCF1FE5C0DD980
:1007000001F0004C4FEAC0024CEA5070B2F1004FC9
:1007100040EB830008BF20F00100704711F0804FCC
:1007200021D113F13872BCBF01F00040704741F491
:1007300080114FEA5252C2F11802C2F1200C10FA95
:100740000CF320FA02F018BF40F001004FEAC12379
:100750004FEAD32303FA0CFC40EA0C0023FA02F31D
:100760004FEA4303CCE77FEA625307D150EA0133F3
:100770001EBF4FF0FE4040F44000704701F00040C3
:1007800040F0FE4040F40000704700BF80F00040A1
:1007900002E000BF81F0004142001FBF5FEA410359
:1007A00092EA030F7FEA226C7FEA236C6AD04FEA59
:1007B0001262D2EB1363C1BFD2184140484041409E
:1007C000B8BF5B42192B88BF704710F0004F40F450
:1007D000000020F07F4018BF404211F0004F41F46C
:1007E000000121F07F4118BF494292EA030F3FD038
:1007F000A2F1010241FA03FC10EB0C00C3F120034B
:1008000001FA03F100F0004302D5494260EB4000D9
:10081000B0F5000F13D3B0F1807F06D340084FEA44
:10082000310102F10102FE2A51D2B1F1004F40EB39
:10083000C25008BF20F0010040EA030070474900A1
:1008400040EB0000013A28BFB0F5000FEDD2B0FA3E
:1008500080FCACF1080CB2EB0C0200FA0CF0AABF61
:1008600000EBC25052421843BCBFD04018437047FF
:1008700092F0000F81F4000106BF80F40000013205
:10088000013BB5E74FEA41037FEA226C18BF7FEADC
:10089000236C21D092EA030F04D092F0000F08BF1E
:1008A0000846704790EA010F1CBF0020704712F005
:1008B0007F4F04D1400028BF40F00040704712F144
:1008C00000723CBF00F50000704700F0004343F0A9
:1008D000FE4040F4000070477FEA226216BF0846DF
:1008E0007FEA23630146420206BF5FEA412390EAA2
:1008F000010F40F4800070474FF0000304E000BF98
:1009000010F0004348BF40425FEA000C08BF704748
:1009100043F0964301464FF000001CE050EA01020C
:1009200008BF70474FF000030AE000BF50EA010221
:1009300008BF704711F0004302D5404261EB41010E
:100940005FEA010C02BF84460146002043F0B64333
:1009500008BFA3F18053A3F50003BCFA8CF2083A58
:10096000A3EBC25310DB01FA02FC634400FA02FC61
:10097000C2F12002BCF1004F20FA02F243EB020068
:1009800008BF20F00100704702F1200201FA02FCCA
:10099000C2F1200250EA4C0021FA02F243EB0200BD
:1009A00008BF20EADC7070474FF0FF0C1CEAD05201
:1009B0001EBF1CEAD15392EA0C0F93EA0C0F6FD0C2
:1009C0001A4480EA010C400218BF5FEA41211ED0A0
:1009D0004FF0006343EA501043EA5111A0FB01318C
:1009E0000CF00040B1F5000F3EBF490041EAD37161
:1009F0005B0040EA010062F17F02FD2A1DD8B3F1DD
:100A0000004F40EBC25008BF20F00100704790F04B
:100A1000000F0CF0004C08BF49024CEA502040EA9D
:100A200051207F3AC2BFD2F1FF0340EAC250704763
:100A300040F400004FF00003013A5DDC12F1190FA1
:100A4000DCBF00F000407047C2F10002410021FA13
:100A500002F1C2F1200200FA02FC5FEA310040F12B
:100A6000000053EA4C0308BF20EADC70704792F0A4
:100A7000000F00F0004C02BF400010F4000F013ADC
:100A8000F9D040EA0C0093F0000F01F0004C02BFD7
:100A9000490011F4000F013BF9D041EA0C018FE746
:100AA0000CEAD15392EA0C0F18BF93EA0C0F0AD04C
:100AB00030F0004C18BF31F0004CD8D180EA010072
:100AC00000F00040704790F0000F17BF90F0004F0B
:100AD000084691F0000F91F0004F14D092EA0C0FED
:100AE00001D142020FD193EA0C0F03D14B0218BF80
:100AF000084608D180EA010000F0004040F0FE40C6
:100B000040F40000704740F0FE4040F44000704761
:100B10004FF0FF0C1CEAD0521EBF1CEAD15392EAE0
:100B20000C0F93EA0C0F69D0A2EB030280EA010CD0
:100B300049024FEA402037D04FF0805343EA111169
:100B400043EA10130CF000408B4238BF5B0042F1C7
:100B50007D024FF4000C8B4224BF5B1A40EA0C006C
:100B6000B3EB510F24BFA3EB510340EA5C00B3EB9E
:100B7000910F24BFA3EB910340EA9C00B3EBD10F8C
:100B800024BFA3EBD10340EADC001B0118BF5FEADE
:100B90001C1CE0D1FD2A3FF650AF8B4240EBC25007
:100BA00008BF20F0010070470CF0004C4CEA5020C8
:100BB0007F32C2BFD2F1FF0340EAC250704740F417
:100BC00000004FF00003013A37E792F0000F00F009
:100BD000004C02BF400010F4000F013AF9D040EA87
:100BE0000C0093F0000F01F0004C02BF490011F41B
:100BF000000F013BF9D041EA0C0195E70CEAD15313
:100C000092EA0C0F08D142027FF47DAF93EA0C0FF9
:100C10007FF470AF084676E793EA0C0F04D14B02DD
:100C20003FF44CAF08466EE730F0004C18BF31F08F
:100C3000004CCAD130F000427FF45CAF31F0004389
:100C40007FF43CAF5FE700BF4FF0FF3C06E000BF22
:100C50004FF0010C02E000BF4FF0010C4DF804CD45
:100C60004FEA40024FEA41037FEA226C18BF7FEA55
:100C7000236C11D001B052EA530C18BF90EA010F57
:100C800058BFB2EB030088BFC81738BF6FEAE170E6
:100C900018BF40F0010070477FEA226C02D15FEA82
:100CA000402C05D17FEA236CE4D15FEA412CE1D0EE
:100CB0005DF8040B704700BF844608466146FFE7B5
:100CC0000FB5FFF7C9FF002848BF10F1000F0FBD97
:100CD0004DF808EDFFF7F4FF0CBF012000205DF890
:100CE00008FB00BF4DF808EDFFF7EAFF34BF012015
:100CF00000205DF808FB00BF4DF808EDFFF7E0FFAE
:100D000094BF012000205DF808FB00BF4DF808EDFE
:100D1000FFF7D2FF94BF012000205DF808FB00BF61
:100D20004DF808EDFFF7C8FF34BF012000205DF843
:100D300008FB00BF4FEA4002B2F1FE4F0FD34FF065
:100D40009E03B3EB12620DD94FEA002343F0004338
:100D500010F0004F23FA02F018BF404270474FF0E6
:100D60000000704712F1610F01D1420205D110F06D
:100D7000004008BF6FF0004070474FF00000704720
:100D800010B5054C237833B9044B13B10448AFF3C5
:100D900000800123237010BD10000020000000001F
:100DA000505C000808B5034B1BB103490348AFF37F
:100DB000008008BD0000000014000020505C000806
:100DC00038B5054600240E2C0CD82946064B53F89E
:100DD0002400064B984708B90134F4E7044B53F854
:100DE000240000E0034838BD745C0008210D0008B1
:100DF000B45C00080000E1422DE98848DFF890B0BB
:100E0000002240215846DFF88CA0D047224E3046C1
:100E1000DFF88890C8474FF0FF310120DFF880806D
:100E2000C04730461F4FB8471F4B98471F4C2060A4
:100E300020681F4D1F49A847206020681E49A84709
:100E4000206020684FF06651A847206001224021B1
:100E50005846D0473046C8474FF0FF310120C047C1
:100E60003046B847104B9847144C20602068124910
:100E7000A847206020684FF06651A847206020688E
:100E80000F4B9847206032200E4B9847B6E700BFC3
:100E90000008014025250008D01E002075580008D4
:100EA000E946000885550008F90800083C000020C4
:100EB000A90900080000C8420000A040400000202E
:100EC000C10D00088543000802680E4B1B689A425A
:100ED00000D0704700B583B00023019301A90A4BED
:100EE00018680A4B9847019B4BB14FF0E0234FF035
:100EF0008052C3F8042DBFF34F8FBFF36F8F03B041
:100F00005DF804FBD01E0020380000206D4700086B
:100F10002DE9F0410368164A1468A34201D0BDE8E8
:100F2000F081606B134E3368C3EB0343DFF84880F6
:100F30001844C047114F3968114B9847114D28602C
:100F4000606BC04738600023336029680E480F4B40
:100F500098470F4B984704A3D3E900230D4CA047B3
:100F60000D4B98472860DAE733333333333303408C
:100F70006800002030000020F9080008340000203C
:100F8000950700082C00002000007A44110B00088F
:100F90003D06000821010008ED06000810B582B0EA
:100FA000094C2046094B984700212046084B98479A
:100FB000084B01930223009300238022064907482F
:100FC000074CA04702B010BD68000020CD270008E4
:100FD000292D000838000020685C0008F90D000881
:100FE0001540000800B583B04FF0FF320DF1070146
:100FF000074B1868074B984701220DF10701064877
:10100000064B98474FF0FF310120054B9847EBE71F
:10101000440000203D3A0008F80000207530000828
:10102000E946000802680E4B1B689A4200D07047E0
:1010300000B583B00023019301A90A4B18680A4B3D
:101040009847019B4BB14FF0E0234FF08052C3F81B
:10105000042DBFF34F8FBFF36F8F03B05DF804FB18
:10106000F8000020480000206D47000810B582B04D
:10107000002201214020084B9847084B1860084B7C
:101080000193042300930023802206490648074C5D
:10109000A04702B010BD00BF553700084400002033
:1010A00048000020F45C0008E50F00081540000827
:1010B00010B582B08DF8070000234FF0FF320DF11C
:1010C000070103480068034CA04702B010BD00BFF1
:1010D00044000020AD370008400100F0200001F07E
:1010E0000F010843054BD860DA6842F04002DA602D
:1010F000DA6822F04002DA60704700BF0010014059
:1011000070B505460C460909044EB04721462846ED
:10111000B0470220024B984770BD00BFD9100008AD
:101120008543000800B583B01420114CA04702216C
:101130000020104B98470220A047282100200E4C89
:10114000A0470C210020A04706210020A047022133
:101150000020A0474FF0FF3201A9084B1868084B48
:1011600098479DF805109DF80400034B9847F1E758
:1011700085430008D9100008011100084C00002028
:101180003D3A000810B582B0002202214020084BF1
:101190009847084B1860084B0193022300930023E3
:1011A000402206490648074CA04702B010BD00BFC8
:1011B000553700084C00002050000020005D00085A
:1011C000251100081540000810B582B08DF8040004
:1011D0008DF8051000234FF0FF3201A90248006886
:1011E000024CA04702B010BD4C000020AD370008F3
:1011F00008B5094B18680949094B984730B10022D6
:101200004FF400510748084B984708BD4FF4005170
:101210000448064B9847F8E72C000020000048429D
:10122000E50C0008000801402525000831250008CC
:1012300030B587B0874B93E8030006AB03E90300A2
:10124000854A02AB92E8030083E80300834A6B46B9
:1012500092E8030083E8030090210020804B984728
:10126000002407E006AB234413F8081C01207C4B44
:1012700098470134072CF5DD80210020784B9847F2
:10128000002407E006AB234413F8101C0120744B24
:1012900098470134072CF5DDC0210020704B98479A
:1012A000002407E006AB234413F8181C01206C4B04
:1012B00098470134072CF5DDA0E088210020684B19
:1012C000984700246748684B9847A04206D9654B69
:1012D000195D0120624B98470134F3E7C8210020D3
:1012E0005F4B9847002461485F4B9847A04206D95E
:1012F0005E4B195D01205A4B98470134F3E70024F7
:101300005848594B9847A04205D9564B185D584B41
:1013100098470134F4E72F20554B98470024534851
:10132000514B9847A04205D9504B185D504B9847F8
:101330000134F4E72F204E4B984700244D484A4B88
:101340009847A04205D94B4B185D494B984701344B
:10135000F4E7C820484B984798210020404B984715
:10136000002404E0202101203D4B984701344148EE
:101370003D4B9847A042F5D888210020384B98472C
:10138000002404E020210120354B984701343548E2
:10139000354B9847A042F5D8C8210020304B9847DC
:1013A000002404E0202101202D4B984701342F48D0
:1013B0002D4B9847A042F5D8002403E008202C4B81
:1013C000984701342748284B9847A042F6D8082070
:1013D000274B9847002403E00820254B9847013409
:1013E0002248214B9847A042F6D80820204B984726
:1013F000002420481C4B9847A04225D81F4B186852
:101400001F4DA8470A221B491E4CA0471E4B1868B7
:10141000A8470A221349A0471C4B1868A8470A226C
:101420001249A047982100200D4B984700241148ED
:101430000D4B9847A0427FF640AF0E4B195D01203F
:10144000074B98470134F2E70820094B98470134CD
:10145000CFE700BF0C5D0008185D0008245D0008A0
:10146000C91100086000002011010008540000208C
:10147000B11000085C000020854300083C000020FB
:10148000350D00089D5B0008400000202C00002066
:1014900010B582B0134B9847134B9847134B98479E
:1014A000134B019302230093002380221149124819
:1014B000124CA047124B0093002301224FF4FA7103
:1014C0001048114CA0470446104B984702464FF075
:1014D000FF3300930023012120460D4CA04702B0AA
:1014E00010BD00BF851100086D1000089D0F000899
:1014F00058000020305D0008311200081540000837
:10150000F11100083C5D0008ED4900084941000860
:101510002D4A000810B504460368B3F1804F04D08B
:101520002268064B9A4203D010BD054B9847F7E757
:10153000044A136801331360F6E700BF002C014032
:10154000051B00083000002072B6FEE700B595B01C
:10155000282200210DEB0200184B98470023059329
:1015600006930793089309930193029303930493BB
:1015700002230A9301230E9310230F930AA8104B02
:101580009847A8B90F230593002106910791089168
:10159000099105A80B4B984760B9022301930023DA
:1015A000039301A8084B984730B915B05DF804FBC8
:1015B000064B9847054B9847044B9847BD5B00087E
:1015C000551B0008E11F0008E92100084915000823
:1015D00008B50B4B98470B4B98470B4B98470B4B59
:1015E00098470B4B98470B4B98470B4B98470B4B27
:1015F00098470B4B98470B4B98470B4B9847FEE788
:10160000D51A00084D1500082D160008B518000859
:1016100091170008A1540008091700089114000848
:10162000894D0008E5160008CD4D00082DE9F04170
:1016300088B000240494059406940794204B9A697A
:1016400042F010029A619A6902F010020192019A26
:101650009A6942F004029A619A6902F004020292C5
:10166000029A9A6942F008029A619B6903F00803A2
:101670000393039B134E22467F213046124DA84709
:10168000124F22464FF401513846A8477F23049356
:101690004FF00108CDF8148002250695079504A99E
:1016A00030460B4EB0474FF401530493CDF81480ED
:1016B0000694079504A93846B04708B0BDE8F08104
:1016C00000100240001001402525000800080140DC
:1016D0000523000808B50120014B9847FBE700BF30
:1016E000114F000808B5044A00210448044B9847EC
:1016F000044B186008BD00BF545D0008D5160008F3
:101700001D4E00086400002000B587B0002304933C
:10171000059300930193029303931748174A0260BD
:1017200041F63F72426083604FF6FF72C260036110
:1017300043618361124B9847A8B900230493059332
:1017400004A90D480F4B984780B90022009201234D
:10175000019302920392694607480B4B984740B9A0
:1017600007B05DF804FB094B9847E6E7074B98473D
:10177000EBE7064B9847F3E768000020002C014098
:10178000912A0008752E0008412B00084915000811
:1017900000B587B00023029303930493059300934D
:1017A00001931548154A026041F63F72426083601A
:1017B0000922C26003618361114B984790B94FF4CD
:1017C0008053029302A90C480E4B984768B9002336
:1017D00000930193694608480B4B984740B907B0FE
:1017E0005DF804FB094B9847E9E7084B9847EEE79B
:1017F000064B9847F3E700BFB0000020000400400C
:10180000312A00081D2C0008752E00084915000813
:1018100000B587B0002302930393049305930268F5
:10182000144B9A4202D007B05DF804FB03F5644301
:101830009A6942F400629A619A6902F40062009225
:10184000009A9A6942F004029A619B6903F00403CA
:101850000193019B4FF48073029302A90648074B42
:101860009847002205211B20054B98471B20054B5C
:101870009847D8E7002C01400008014005230008E4
:1018800045260008B52600080268094B9A4200D098
:10189000704782B003F50333DA6942F00202DA617D
:1018A000DB6903F002030193019B02B0704700BFA4
:1018B0000004004008B50A480A4B03604FF4165371
:1018C000436000238360C36003610C224261836133
:1018D000C361054B984700B908BD044B9847FBE727
:1018E000F8000020003801400D30000849150008BC
:1018F00070B586B0002302930393049305930268A6
:101900001D4B9A4201D006B070BD03F558439A6949
:1019100042F480429A619A6902F480420092009AED
:101920009A6942F008029A619B6903F008030193E7
:10193000019B4023029302230393032305930F4E3D
:1019400002A930460E4DA847802302930024039439
:10195000049402A93046A8470A4A536843F0E0635A
:1019600043F004035360224605212520064B984787
:101970002520064B9847C6E700380140000C01407F
:10198000052300080000014045260008B526000890
:10199000FEE7FEE7FEE7FEE7FEE7704708B5024810
:1019A000024B984708BD00BFD01E00208D5500088F
:1019B00008B50248024B984708BD00BF68000020E8
:1019C0003528000808B50248024B984708BD00BFFB
:1019D0003C0100203528000808B50248024B984712
:1019E00008BD00BFF8000020DD31000800B583B05D
:1019F000114B9A6942F001029A619A6902F0010260
:101A00000092009ADA6942F08052DA61DB6903F0F1
:101A100080530193019B00220F216FF00100074BBF
:101A20009847074A536823F0E06343F080635360AC
:101A300003B05DF804FB00BF00100240452600081B
:101A40000000014000B589B0014600221C20184B5F
:101A500098471C20174B9847174BDA6942F0010250
:101A6000DA61DB6903F001030193019B02A903A87A
:101A7000124B9847124B9847124BA3FB00239B0C29
:101A8000013B11484FF08042026040F2E732C260F1
:101A900043600023036183600C4B984718B1012019
:101AA00009B05DF804FB0848094B9847F8E700BF08
:101AB00045260008B526000800100240AD210008A8
:101AC0006521000883DE1B433C010020312A000809
:101AD000CD27000808B5074A136843F010031360C8
:101AE0000320054B98470F20044B9847044B984719
:101AF000002008BD0020024021260008451A0008E9
:101B0000ED190008034A1168034B1B780B4413605E
:101B1000704700BF8401002000000020014B1868BE
:101B2000704700BF8401002082B0084B1B68084A40
:101B3000A2FB03235B0A00FB03F3019300BF019B9D
:101B40005A1E0192002BF9D102B070470800002004
:101B5000D34D6210002800F0F58170B582B00446C4
:101B6000036813F0010F2CD08F4B5B6803F00C035C
:101B7000042B1DD08C4B5B6803F00C03082B12D098
:101B80006368B3F5803F41D0002B55D103F180430A
:101B900003F504331A6822F480321A601A6822F4BA
:101BA00080221A6037E0804B5B6813F4803FE7D0F7
:101BB0007D4B1B6813F4003F03D06368002B00F0DB
:101BC000C381236813F0020F75D0774B5B6813F065
:101BD0000C0F5FD0744B5B6803F00C03082B54D0E0
:101BE0002369002B00F08A80704B01221A60704B31
:101BF000984705466C4B1B6813F0020F75D16C4B70
:101C00009847401B0228F5D90320A2E1664A1368D1
:101C100043F480331360636843B3654B98470546CC
:101C2000614B1B6813F4003FCBD1614B9847401BBD
:101C30006428F5D903208CE1B3F5A02F09D05A4BC5
:101C40001A6822F480321A601A6822F480221A601C
:101C5000E1E703F18043A3F53C331A6842F48022A4
:101C60001A601A6842F480321A60D4E7504B9847E1
:101C700005464D4B1B6813F4003FA2D04C4B9847D0
:101C8000401B6428F5D9032063E1474B5B6813F4DC
:101C9000803FA5D1444B1B6813F0020F03D023698A
:101CA000012B40F05381404A136823F0F803616927
:101CB00043EAC1031360236813F0080F33D0A3690C
:101CC000002B5CD0394B0122C3F88024384B984755
:101CD0000546354B5B6A13F0020F21D1344B984710
:101CE000401B0228F5D9032033E12F4A136823F063
:101CF000F803616943EAC1031360DCE72B4B002260
:101D00001A602B4B98470546274B1B6813F0020FB0
:101D1000D1D0274B9847401B0228F5D9032018E162
:101D20000120244B9847236813F0040F00F09A8099
:101D30001D4BDB6913F0805F34D11B4BDA6942F035
:101D40008052DA61DB6903F080530193019B012526
:101D5000194B1B6813F4807F30D0E368012B41D00E
:101D6000002B57D103F1804303F504331A6A22F0A4
:101D700001021A621A6A22F004021A6237E00B4B5F
:101D80000022C3F880240A4B98470546064B5B6A3D
:101D900013F0020FC7D0064B9847401B0228F5D915
:101DA0000320D6E00025D3E70010024000004242A5
:101DB0001D1B0008291B000800700040694A1368B9
:101DC00043F480731360684B98470646654B1B6865
:101DD00013F4807FC1D1644B9847801B6428F5D9E8
:101DE0000320B6E0614A136A43F001031362E3681B
:101DF00033B35D4B984706465C4B1B6A13F0020FEA
:101E00002FD1594B9847801B41F288339842F3D920
:101E100003209EE0052B09D0544B1A6A22F00102E0
:101E20001A621A6A22F004021A62E0E74F4B1A6A39
:101E300042F004021A621A6A42F001021A62D6E7FC
:101E4000494B98470646494B1B6A13F0020F08D0CE
:101E5000454B9847801B41F288339842F3D90320C1
:101E600077E0E5B9E369002B72D0404A526802F08E
:101E70000C02082A56D0022B17D03D4B00221A66BE
:101E8000394B98470446394B1B6813F0007F47D005
:101E9000354B9847001B0228F5D9032059E0334AF7
:101EA000D36923F08053D361DCE7314B00221A66FB
:101EB0002D4B984705462D4B1B6813F0007F06D02D
:101EC000294B9847401B0228F5D9032041E0236A9B
:101ED000B3F5803F1AD025494B6823F47413226A66
:101EE000606A024313434B60214B01221A661E4B6A
:101EF000984704461D4B1B6813F0007F0ED11A4B08
:101F00009847001B0228F5D9032022E0174A53689E
:101F100023F40033A1680B435360DCE7002018E092
:101F2000002016E0012B16D0104B5B6803F48031C3
:101F3000226A914211D103F47013626A93420ED166
:101F4000002006E001207047012002E0012000E0AF
:101F5000002002B070BD0120FBE70120F9E701205D
:101F6000F7E700BF007000401D1B00080010024092
:101F70000000424286B0164B0FCB0DF1180C0CE955
:101F80000F0040F20123ADF80430124B5B6803F000
:101F90000C02082A02D0104806B07047C3F38342EF
:101FA000624412F8100C13F4803F0CD0094B5B68AC
:101FB000C3F34043634413F8143C074A02FB00F0A8
:101FC000B0FBF3F0E8E7054B03FB00F0E4E700BFEC
:101FD000785D00080010024000127A0000093D0000
:101FE000002800F0A08070B50D460446524B1B68D7
:101FF00003F007038B420BD24F4A136823F0070309
:102000000B431360136803F007038B4240F08D808D
:10201000236813F0020F17D013F0040F04D0474ABF
:10202000536843F4E0635360236813F0080F04D04F
:10203000424A536843F460535360404A536823F064
:10204000F003A1680B435360236813F0010F31D0F4
:102050006368012B20D0022B25D0384A126812F079
:10206000020F64D035494A6822F0030213434B60E3
:10207000334B98470646314B5B6803F00C036268AC
:10208000B3EB820F16D02E4B9847801B41F288335A
:102090009842F0D9032045E0284A126812F4003F24
:1020A000E0D101203EE0254A126812F0007FD9D12C
:1020B000012037E0204B1B6803F00703AB420AD92D
:1020C0001D4A136823F007032B431360136803F0C2
:1020D0000703AB422DD1236813F0040F06D0174A33
:1020E000536823F4E063E1680B435360236813F003
:1020F000080F07D0114A536823F46053216943EA5B
:10210000C10353600F4B98470C4B5B68C3F3031339
:102110000D4AD35CD8400D4B18600D4B18680D4B21
:102120009847002070BD012070470120FAE7012088
:10213000F8E70120F6E700BF00200240001002404F
:102140001D1B0008751F00088C5D0008080000209A
:1021500004000020451A0008014B1868704700BFB2
:102160000800002008B5054B9847054B5B68C3F392
:102170000223044AD35CD84008BD00BF592100089F
:10218000001002409C5D000808B5054B9847054BC0
:102190005B68C3F3C223044AD35CD84008BD00BFC8
:1021A00059210008001002409C5D00080F230360C5
:1021B0000B4B5A6802F0030242605A6802F0F002C8
:1021C00082605A6802F4E062C2605B68DB0803F474
:1021D000E0630361034B1B6803F007030B60704768
:1021E000001002400020024070B582B0044603682F
:1021F00013F0010F36D03F4BDB6913F0805F49D1FC
:102200003C4BDA6942F08052DA61DB6903F08053BB
:102210000193019B0125384B1B6813F4807F3BD051
:10222000344B1B6A13F4407313D0626802F440729B
:102230009A420ED02F4A136A23F440702F49012688
:10224000C1F840640026C1F84064106213F0010F29
:1022500036D1284A136A23F4407361680B43136232
:10226000002D3ED1236813F0020F06D0214A536897
:1022700023F44043A1680B435360236813F0100F0D
:1022800034D01C4A536823F48003E1680B43536045
:1022900000202CE00025BEE7174A136843F4807342
:1022A0001360174B98470646134B1B6813F4807F47
:1022B000B6D1134B9847801B6428F5D9032016E04C
:1022C0000F4B984706460B4B1B6A13F0020FC0D109
:1022D0000B4B9847801B41F288339842F3D9032077
:1022E00005E0D36923F08053D361BBE7002002B03F
:1022F00070BD00BF0010024000700040000042426C
:102300001D1B000870B582B00024A4468BE07F4DF1
:10231000AA4210D007D97E4DAA420CD005F58035CF
:10232000AA4208D015E0A5F58015AA4203D005F50C
:102330007025AA4209D18A68002A00F0BF80012ACC
:1023400000F0B7804361082403E0A5F58015AA4298
:10235000F1D0BEF1FF0F00F2B3800646BEF1FF0FD1
:1023600000F2B0804FEA8C0233680F25954023EAD3
:10237000050304FA02F2134333604B6813F0805FE5
:102380004FD0644B9A6942F001029A619B6903F055
:1023900001030193019B4FEA9C02951C5E4B53F88D
:1023A00025600CF003039D000F23AB4026EA0306D3
:1023B0005A4B984200F08C8003F58063984200F0FD
:1023C000898003F58063984200F080800323AB404E
:1023D00033430232504D45F822304B6813F4803FAE
:1023E0007AD04F4A136843EA0E0313604B6813F424
:1023F000003F77D04A4A536843EA0E0353604B6864
:1024000013F4801F74D0464A936843EA0E03936026
:102410004B6813F4001F71D0414AD36843EA0E039E
:10242000D3600CF1010C0A6832FA0CF36CD0012372
:1024300003FA0CF302EA030E33EA0202F1D14A680E
:10244000122A3FF664AF122A83D801A555F822F06C
:10245000372300089D240008A7240008B924000899
:102460005323000853230008532300085323000874
:102470005323000853230008532300085323000864
:102480005323000853230008532300085323000854
:1024900053230008A1240008AD240008CC6858E7A5
:1024A000CC68043455E7CC68083452E7CC680C3467
:1024B0004FE7036108244CE700244AE7042448E777
:1024C000061D4BE7ACF1080292004DE702237EE7C0
:1024D00000237CE701237AE7114A136823EA0E03FD
:1024E000136083E70E4A536823EA0E03536086E7BE
:1024F0000B4A936823EA0E03936089E7084AD3687E
:1025000023EA0E03D3608CE702B070BD00002210F6
:10251000000031100010024000000140000801409E
:10252000000401400AB1016170470904016170476C
:10253000C36801EA030221EA030141EA02410161A1
:10254000704790F82130022B06D0042383630023C8
:1025500080F82030012070470268136823F00E03D2
:1025600013600268136823F001031360036CC16BEE
:10257000012202FA03F34B6080F82120002380F847
:10258000203018467047000008B590F82130022B23
:1025900003D004238363012008BD0268136823F07D
:1025A0000E0313600268136823F0010313600368CD
:1025B000194A934214D0143293421FD014329342DA
:1025C0001ED0143293421ED0143293421ED01432C5
:1025D000934202D04FF0807203E04FF4801200E08B
:1025E00001220E4B5A60012380F82130002380F82D
:1025F0002030436B6BB198470020CDE71022F0E705
:102600004FF48072EDE74FF48052EAE74FF48032E6
:10261000E7E70020C0E700BF0800024000000240DA
:10262000074AD36823F4E0631B041B0C000200F488
:10263000E060034343F0BF6343F40033D36070476B
:1026400000ED00E000B5194BDB68C3F30223C3F1D2
:10265000070CBCF1040F28BF4FF0040C03F1040E6B
:10266000BEF1060F18D9033B4FF0FF3E0EFA0CFCEB
:1026700021EA0C0199400EFA03F322EA03031943FD
:1026800000280BDB0901C9B200F1604000F5614090
:1026900080F800135DF804FB0023E5E700F00F006D
:1026A0000901C9B2024B1954F4E700BF00ED00E084
:1026B00014ED00E0002807DB00F01F0240090123B1
:1026C0009340024A42F82030704700BF00E100E02A
:1026D00010B4036A046A24F001040462846924F0DB
:1026E000F00C4CEA021223F00A030B4382610362EE
:1026F00010BC704730B4046A24F01004046284698A
:10270000056A24F4407C4CEA022C2CF4704C1B0328
:102710009BB243EA0C0325F0A005090101F0A001DA
:1027200029438361016230BC704710B4046A24F00D
:10273000100404628469036A24F4704C4CEA023287
:1027400023F0A00343EA01138261036210BC7047C7
:1027500030B4046A24F480740462C469056A24F005
:10276000030C4CEA020C2CF0F00C1B01DBB243EA28
:102770000C0325F40075090201F400712943C361BB
:10278000016230BC704730B4046A24F4805404629F
:10279000C469056A24F4407C4CEA022C2CF4704C89
:1027A0001B039BB243EA0C0325F40055090301F413
:1027B00000512943C361016230BC7047836823F034
:1027C00070030B4343F007038360704790F83D307C
:1027D000DBB2012B23D1022380F83D300268D3689D
:1027E00043F00103D36003680F4A93420CD0B3F166
:1027F000804F09D0A2F59432934205D01A6842F076
:1028000001021A60002070479A6802F00702062A47
:1028100007D01A6842F001021A60002070470120B8
:1028200070470020704700BF002C01407047704780
:102830007047000010B5044603681A6912F0020FD1
:1028400011D0DA6812F0020F0DD06FF002021A6197
:102850000123037703689B6913F0030F70D0544B77
:1028600098470023237723681A6912F0040F12D0C7
:10287000DA6812F0040F0ED06FF004021A6102231E
:10288000237723689B6913F4407F5FD02046484B31
:1028900098470023237723681A6912F0080F12D093
:1028A000DA6812F0080F0ED06FF008021A610423E4
:1028B00023772368DB6913F0030F4ED020463C4B8F
:1028C00098470023237723681A6912F0100F12D05B
:1028D000DA6812F0100F0ED06FF010021A610823A0
:1028E00023772368DB6913F4407F3DD02046304BCB
:1028F00098470023237723681A6912F0010F03D049
:10290000DA6812F0010F36D123681A6912F0800FCD
:1029100003D0DA6812F0800F34D123681A6912F0FC
:10292000400F03D0DA6812F0400F32D123681A69E1
:1029300012F0200F03D0DA6812F0200F30D110BD52
:102940001C4B984720461C4B98478AE72046194B5A
:1029500098472046184B98479BE72046154B9847C9
:102960002046154B9847ACE72046124B9847204627
:10297000114B9847BDE76FF001021A6120460F4BDB
:102980009847C1E76FF080021A6120460C4B9847C8
:10299000C3E76FF040021A6120460A4B9847C5E72B
:1029A0006FF020021A612046074B9847C7E700BF27
:1029B000110F00082D2800082F2800081515000801
:1029C000DB2E000831280008D92E00080368174ABA
:1029D000904206D0B0F1804F03D0A2F594329042DD
:1029E00003D123F070034A681343104A904206D083
:1029F000B0F1804F03D0A2F59432904203D123F47A
:102A00004073CA68134323F080034A691343036089
:102A10008B68C3620B688362044B984202D0012327
:102A2000436170470B690363F9E700BF002C014065
:102A300040B310B5044690F83D30F3B1022384F85A
:102A40003D30214651F8040B0F4B9847012384F881
:102A5000463084F83E3084F83F3084F8403084F8C3
:102A6000413084F8423084F8433084F8443084F8AC
:102A7000453084F83D30002010BD80F83C30034BD9
:102A80009847DBE701207047CD2900088918000826
:102A900040B310B5044690F83D30F3B1022384F8FA
:102AA0003D30214651F8040B0F4B9847012384F821
:102AB000463084F83E3084F83F3084F8403084F863
:102AC000413084F8423084F8433084F8443084F84C
:102AD000453084F83D30002010BD80F83C30034B79
:102AE0009847DBE701207047CD290008111800083E
:102AF00070B4046A24F0010404628469056A0F4E0C
:102B0000B04209D0B0F1804F06D0A6F59436B0425D
:102B100002D044F0010202E024F00304224322F038
:102B2000F0021B01DBB2134325F00A0201F00A0197
:102B300011438361016270BC704700BF002C0140EB
:102B400090F83C30012B53D070B504460D4601235C
:102B500080F83C30C2B1042A27D0082A37D0CB688D
:102B60004A6809680068234EB0472268D36923F495
:102B70004063D3612268D369A96843EA0123D36122
:102B8000002084F83C0070BDCB684A680968006882
:102B9000194EB0472268936923F00C0393612268B1
:102BA0009369A9680B439361EAE7CB684A680968AF
:102BB0000068124EB0472268936923F44063936122
:102BC00022689369A96843EA01239361D8E7CB6837
:102BD0004A68096800680A4EB0472268D36923F042
:102BE0000C03D3612268D369A9680B43D361C7E79B
:102BF0000220704787270008F12A0008F526000800
:102C00005127000810B4846824F47F4C42EA032260
:102C10000A4342EA0C02826010BC704738B590F853
:102C20003C30012B65D00446012380F83C30022360
:102C300080F83D300268936823F47F4323F07703E4
:102C400093600B68602B40D022D8402B47D00BD923
:102C5000502B0ED1CA6849680068274B984750210D
:102C60002068264B984704E0202B0CD008D9302B45
:102C700009D0012384F83D30002084F83C0038BDA1
:102C80000BB1102BF5D1194620681C4B9847F0E783
:102C9000702B0ED0B3F5005FEBD1CB684A68896822
:102CA0000068174DA8472268936843F480439360F7
:102CB000DFE7CB684A6889680068114DA847226839
:102CC000936843F077039360D3E7CA684968006864
:102CD0000C4B984760212068084B9847C9E7CA68A1
:102CE00049680068044B984740212068034B984787
:102CF000BFE70220C3E700BFD1260008BD270008B8
:102D0000052C00082B27000801F01F01012303FAFE
:102D100001FC036A23EA0C030362036A02FA01F16D
:102D20000B4303627047000010B504460B4601BB1D
:102D300090F83E00C0B263BB94F84220D2B20128A2
:102D400040F08F80012A40F08D8093BB022284F8EE
:102D50003E20002B3DD1022284F842200C2B4DD87E
:102D6000DFE803F0474C4C4C624C4C4C684C4C4CEC
:102D70006E00042905D0082907D090F84100C0B2A0
:102D8000D9E790F83F00C0B2D5E790F84000C0B254
:102D9000D1E7042B05D0082B07D094F84520D2B2F8
:102DA000CDE794F84320D2B2C9E794F84420D2B2D8
:102DB000C5E7042B05D0082B07D0022284F8412058
:102DC000C7E7022284F83F20C3E7022284F84020AC
:102DD000BFE7042B05D0082B07D0022284F845203A
:102DE000BCE7022284F84320B8E7022284F844209A
:102DF000B4E72168CA6842F00202CA60012219469B
:102E000020681A4B98472368194A93421ED0B3F1A1
:102E1000804F1BD0A2F59432934217D01A6842F02B
:102E200001021A6000201DE02168CA6842F0040215
:102E3000CA60E3E72168CA6842F00802CA60DDE7B9
:102E40002168CA6842F01002CA60D7E79A6802F0A7
:102E50000702062A07D01A6842F001021A60002011
:102E600000E0012010BD0020FCE700BF092D000894
:102E7000002C014090F83C30012B28D010B40123E5
:102E800080F83C30022380F83D3003685A689C6823
:102E900022F0700C0A6842EA0C025A6003680D4A7C
:102EA000934206D0B3F1804F03D0A2F594329342FF
:102EB00004D124F080044A6814439C60012380F804
:102EC0003D30002380F83C30184610BC704702208B
:102ED000704700BF002C0140704770470268D368FC
:102EE00023F49073D3600268536923F001035361A4
:102EF000036B012B05D0202380F83E3000230363B1
:102F000070470268D36823F01003D360F3E790F8AA
:102F10003D30DBB2212B01D0022070478368B3F52E
:102F2000805F17D0036A5A1C02621A7803685A60DD
:102F3000C38C9BB2013B9BB2C3844BB90268D3687C
:102F400023F08003D3600268D36843F04003D3606A
:102F5000002070470369002BE4D1036A1B880268D4
:102F6000C3F308035360036A02330362E0E700001F
:102F700010B504460268136923F44053C1680B433B
:102F8000136183680269134342691A430168CB687D
:102F900023F4B05323F00C031343CB60026853694E
:102FA00023F4407381690B4353610268134B9A42C7
:102FB00020D0134B9847024602EB820202EB8202BA
:102FC00063689B00B2FBF3F20E48A0FB0231490993
:102FD000642303FB11231B013233A0FB03235B0992
:102FE00003F0F00202EB011203F00F032168134417
:102FF0008B6010BD044B98470246DDE70038014066
:10300000652100081F85EB518921000858B310B5D0
:10301000044690F83D300BB3242384F83D302268F9
:10302000D36823F40053D3602046104B984722689E
:10303000136923F4904313612268536923F02A0330
:1030400053612268D36843F40053D36000202064A6
:10305000202384F83D3084F83E3010BD80F83C30A9
:10306000034B9847D8E70120704700BF712F000835
:10307000F118000890F83D30DBB2202B19D1D1B106
:10308000DAB190F83C30012B19D0012380F83C30A4
:1030900001628284C28400230364212280F83D20DF
:1030A00080F83C300168CA6842F08002CA60184665
:1030B00070470220704701207047012070470220AE
:1030C0007047000008B50168CA6822F04002CA6073
:1030D000202280F83D20024B9847002008BD00BF09
:1030E000251000087047704708B5406A0023C38563
:1030F000C384014B984708BDE730000870470000C3
:1031000090F83E30DBB2222B60D18368B3F5805F4C
:1031100046D0826AB3F5805F04D0002B4DD103699D
:10312000002B4AD103685B681370836A01338362A2
:10313000C38D9BB2013B9BB2C385002B48D100B528
:1031400083B00268D36823F02003D3600268D36899
:1031500023F48073D3600268536923F00103536141
:10316000202380F83E30036B012B2CD10023036316
:103170000268D36823F01003D36003681A6812F062
:10318000100F06D0002201921A6801925B68019329
:10319000019B818D0F4B9847002003B05DF804FB25
:1031A0000269002AB5D1826A03685B68C3F3080329
:1031B0001380836A02338362BAE703685B6803F0B3
:1031C0007F031370B1E7044B9847E5E7022070478F
:1031D00000207047FD300008E530000830B583B0AE
:1031E000044602681368D068516913F00F0505D1D1
:1031F00013F0200F02D010F0200F19D12DB111F0D3
:10320000010119D110F4907F16D1216B012975D0DD
:1032100013F0800F03D010F0800F40F0D78013F030
:10322000400F03D010F0400F40F0D48003B030BD09
:1032300020466A4B9847F9E713F0010F06D010F4C7
:10324000807F03D0226C42F00102226413F0040F4D
:1032500004D019B1226C42F00202226413F0020F72
:1032600004D019B1226C42F00402226413F0080F5A
:1032700007D010F0200F00D119B1226C42F00802E3
:103280002264226C002AD1D013F0200F02D010F05B
:10329000200F21D123685B6903F04003226C12F0F8
:1032A000080F00D123B320464D4B984723685A6935
:1032B00012F0400F18D05A6922F040025A61A36BF5
:1032C00073B1484A5A63A06B474B98470028ADD06A
:1032D000A06B436B9847A9E72046404B9847D9E736
:1032E0002046424B9847A1E72046404B98479DE730
:1032F00020463E4B98470023236497E713F0100FB6
:1033000086D010F0100F83D000230193136801932F
:1033100053680193019B536913F0400F32D0A16BA6
:103320000B685B689BB2002B80D0A08D98427FF623
:103330007DAFE3858B69202B08D1A18DE38D9BB2F6
:10334000C91A89B220462A4B98476FE7D36823F4FD
:103350008073D3602268536923F0010353612268AC
:10336000536923F040035361202384F83E30002347
:1033700023632268D36823F01003D360A06B1D4B36
:103380009847DAE7A18DE38D9BB2C91A89B2E38D24
:103390009BB2002B3FF44AAF00293FF447AFD368FC
:1033A00023F49073D3602268536923F001035361BF
:1033B000202384F83E30002323632268D36823F05F
:1033C0001003D36020460A4B98472FE720460A4B4C
:1033D00098472BE72046094B984727E7013100081B
:1033E000DD2E0008E930000889250008E7300008D4
:1033F000FD300008432500080F2F0008C5300008E5
:10340000704700F1080343604FF0FF328260C360F1
:103410000361002303607047002303617047436822
:103420004B609A688A605160996008610368013353
:103430000360704730B40D68B5F1FF3F11D000F163
:1034400008031C465B681A68AA42FAD963684B6095
:1034500099608C606160086103680133036030BC6F
:1034600070470469F2E70369416882688A604168CD
:1034700051605A68824206D0002202611A68013AFD
:103480001A601868704782685A60F5E710B50446FC
:10349000064B9847A26BE36B9A4204D00024044B7E
:1034A0009847204610BD0124F9E700BF7552000877
:1034B000B952000810B50446054B9847A36B23B9D1
:1034C0000124044B9847204610BD0024F9E700BFB3
:1034D00075520008B952000870B504461546866B4F
:1034E000026C5AB903681BB100200136A66370BD97
:1034F0004068174B984700236360F6E76DB9806812
:10350000144B9847226CA3681344A36062689342EB
:1035100019D32368A3602846E7E7C0680D4B984796
:10352000226C5142E3689B1AE3602268934202D204
:1035300063680B44E360022D01D00020D5E726B17B
:10354000013E0020D1E72846CFE70020CDE700BFAD
:1035500051460008A15B000808B50346026C62B141
:103560000846D9681144D960D3F804C0614501D335
:103570001968D960D968014B984708BDA15B00085C
:1035800038B505461A4B984795F8454064B201E0B6
:10359000013C64B2002C0ADD6B6A43B105F12400E2
:1035A000144B98470028F3D0134B9847F0E7FF23BC
:1035B00085F84530114B98470D4B984795F8444096
:1035C00064B201E0013C64B2002C0ADD2B6943B116
:1035D00005F11000074B98470028F3D0064B984799
:1035E000F0E7FF2385F84430044B984738BD00BF0F
:1035F00075520008E944000825460008B952000841
:1036000038B5E0B10D4604461E4B98472368E26B7F
:10361000216C01FB023060600020A063A360013ACE
:1036200002FB0133E360FF2384F8443084F8453023
:10363000FDB9236963B9144B9847012038BD4FF099
:10364000500383F31188BFF36F8FBFF34F8FFEE7F3
:1036500004F110000D4B98470028ECD04FF0E02308
:103660004FF08052C3F8042DBFF34F8FBFF36F8F1D
:10367000E1E704F11000064DA84704F12400A84733
:10368000D9E700BF75520008B9520008E9440008A4
:103690000334000838B51D46049C0B4649B9246024
:1036A000E063236401212046034B984784F84C5083
:1036B00038BD2260F4E700BF0136000840B94FF082
:1036C000500383F31188BFF36F8FBFF34F8FFEE773
:1036D00030B585B01C46844653B192B189B94FF0DC
:1036E000500383F31188BFF36F8FBFF34F8FFEE753
:1036F0004FF0500383F31188BFF36F8FBFF34F8FE9
:10370000FEE76AB150230393039B502B13D04FF075
:10371000500383F31188BFF36F8FBFF34F8FFEE722
:103720000029EFD04FF0500383F31188BFF36F8F60
:10373000BFF34F8FFEE7012384F8463000949DF8D5
:1037400020306046024DA847204605B030BD00BF7E
:103750009536000840B94FF0500383F31188BFF34A
:103760006F8FBFF34F8FFEE7F0B583B00C46154661
:103770000746A1B101FB00F050300A4B98470646BE
:1037800050B1002380F8463000902B4600F15002E3
:1037900021463846044CA047304603B0F0BD0846E9
:1037A000EAE700BF4D50000895360008F0B585B037
:1037B000019288B10F461D460446B1B1022D20D1B9
:1037C000E36B012B1DD04FF0500383F31188BFF33F
:1037D0006F8FBFF34F8FFEE74FF0500383F31188D5
:1037E000BFF36F8FBFF34F8FFEE7036C002BE5D065
:1037F0004FF0500383F31188BFF36F8FBFF34F8FE8
:10380000FEE74C4B9847064658B9019B002B48D021
:103810004FF0500383F31188BFF36F8FBFF34F8FC7
:10382000FEE700263DE02A4639462046424B9847AF
:10383000636A7BB948B14FF0E0234FF08052C3F880
:10384000042DBFF34F8FBFF36F8F3C4B9847012080
:1038500005B0F0BD04F12400394B98470028F4D09E
:103860004FF0E0234FF08052C3F8042DBFF34F8F89
:10387000BFF36F8FE9E7314B98470020E8E702A8D4
:10388000304B9847012619E0002384F8443021E0AA
:10389000002384F8453023E020462B4B98472B4BE0
:1038A00098472B4B9847A26BE36B9A42BBD3022DF0
:1038B000B9D0019B002BDED0002EE0D01F4B9847E3
:1038C000244B9847224B984794F8442052B2B2F1C7
:1038D000FF3FD9D094F8452052B2B2F1FF3FD7D084
:1038E000164B984701A902A81B4B9847D8B9204608
:1038F0001A4B98470028CFD0019904F11000184BBB
:1039000098472046104B9847104B98470028C8D13D
:103910004FF0E0234FF08052C3F8042DBFF34F8FD8
:10392000BFF36F8FBDE72046074B9847074B98477B
:1039300000208DE731460008D9340008B95200084C
:10394000E94400087D4500088135000879420008F7
:103950007552000839410008954500088D3400086B
:10396000714400082DE9F84390B10F4616461C46F5
:103970000546B1B1022C20D1EB6B012B1DD04FF0CD
:10398000500383F31188BFF36F8FBFF34F8FFEE7B0
:103990004FF0500383F31188BFF36F8FBFF34F8F46
:1039A000FEE7036C002BE5D04FF0500383F3118842
:1039B000BFF36F8FBFF34F8FFEE71D4B9847EFF3B9
:1039C00011894FF0500383F31188BFF36F8FBFF35A
:1039D0004F8FAA6BEB6B9A4206D3022C04D00020C7
:1039E00089F31188BDE8F88395F845804FFA88F887
:1039F0002246394628460F4B9847B8F1FF3F06D07C
:103A000008F101035BB285F845300120E8E76B6AF5
:103A10000BB90120E4E705F12400074B984718B1E2
:103A200026B101203060DBE70120D9E70120D7E78C
:103A300045540008D9340008E9440008F0B585B0C1
:103A4000019290B10F460446C1B1544B98470646C7
:103A500000BB019B002B5ED04FF0500383F3118815
:103A6000BFF36F8FBFF34F8FFEE74FF0500383F329
:103A70001188BFF36F8FBFF34F8FFEE7036C002BEE
:103A8000E3D04FF0500383F31188BFF36F8FBFF380
:103A90004F8FFEE700263EE039462046404B9847D0
:103AA000013DA563236923B93E4B9847012005B02A
:103AB000F0BD04F110003C4B98470028F4D04FF0C3
:103AC000E0234FF08052C3F8042DBFF34F8FBFF3B4
:103AD0006F8FE9E7334B98470020E8E702A8334BA4
:103AE0009847012621E0002384F8443029E0002390
:103AF00084F845302BE020462D4B98472D4B9847B6
:103B000009E020462A4B98472A4B984720462A4BE3
:103B1000984700283FD1294B9847A56B002DBBD172
:103B2000019B002BD6D0002ED8D01E4B9847244B9B
:103B30009847224B984794F844305BB2B3F1FF3F6B
:103B4000D1D094F845305BB2B3F1FF3FCFD0154BE5
:103B5000984701A902A81B4B98470028D1D12046BD
:103B6000154B98470028C6D0019904F12400164B44
:103B7000984720460E4B98470E4B98470028CAD1CD
:103B80004FF0E0234FF08052C3F8042DBFF34F8F66
:103B9000BFF36F8FBFE7002089E700BF3146000801
:103BA00059350008B9520008E94400087D4500086D
:103BB0008135000879420008B534000875520008C4
:103BC0003941000895450008714400080023072B7F
:103BD0000CD8074A52F833200AB10133F7E7044AF8
:103BE00042F8331002EBC30358607047704700BFC0
:103BF0008801002070B504460D461646124B9847C2
:103C000094F844305BB2B3F1FF3F0DD094F84530E7
:103C10005BB2B3F1FF3F0BD00C4B9847A36B5BB18A
:103C200020460B4B984770BD002384F84430EDE7E5
:103C3000002384F84530EFE73246294604F124009A
:103C4000044B9847ECE700BF75520008B9520008D2
:103C500081350008A9440008084B1B681B6823B97C
:103C6000074B4FF0FF321A607047044B1B68DB684C
:103C7000DB685A68024B1A60704700BFCC01002015
:103C8000780600202DE9F84F80460D4617469946E4
:103C90000A9EDDF82CA00C9C9200A521206B204BE5
:103CA0009847236B07F18042013A03EB820727F024
:103CB00007074FF0000CBCF10F0F0BD815F80C20C4
:103CC00004EB0C0383F8342015F80C3013B10CF11D
:103CD000010CF0E7002384F84330372E00D9372653
:103CE000E662E66400252565201DDFF838B0D84778
:103CF00004F11800D8472461C6F13806A661646251
:103D0000656584F858504A4641463846064B984700
:103D10002060BAF1000F01D0CAF80040BDE8F88F6A
:103D2000BD5B0008193400082952000870B5002452
:103D300007E004EB840293000C4818440C4B9847AE
:103D40000134372CF5D90B4E3046094CA0470A4DAB
:103D50002846A0470948A0470948A0470948A04766
:103D6000094B1E60094B1D6070BD00BFD4010020CF
:103D7000033400084C060020600600208006002066
:103D8000AC06002098060020CC010020D0010020C5
:103D900010B50446234B9847234A13680133136038
:103DA000224B1B685BB1224B1B686BB91F4B1B6816
:103DB000DA6AE36A9A4207D81C4B1C6004E01B4B8A
:103DC0001C601368012B29D01A4A13680133136051
:103DD0006364E06A184B1B68984201D9164B18605F
:103DE00000EB8000211D154B03EB8000144B98471E
:103DF000144B98470E4B1B687BB10C4B1B68DA6A5F
:103E0000E36A9A4209D24FF0E0234FF08052C3F8A0
:103E1000042DBFF34F8FBFF36F8F10BD0A4B984730
:103E2000D2E700BF7552000834060020C801002008
:103E3000940600204406002048060020D4010020FB
:103E40001F340008B95200082D3D000838B504465B
:103E500090F8593063B1012B10D0022B0DD04FF0E8
:103E6000500383F31188BFF36F8FBFF34F8FFEE7CB
:103E7000006B044DA8472046A84738BD014B984722
:103E8000FBE700BF4D5100080F4B1B68D3B110B5C5
:103E90000E4B98470E4BDB68DC68201D0D4B984796
:103EA0000D4A1368013B1360074A1368013B136016
:103EB0000A4B984720460A4B9847034B1B68002B38
:103EC000E6D110BD704700BF3806002075520008CB
:103ED000AC0600206734000834060020B952000800
:103EE0004D3E000808B5084B9847084B1B68012B4E
:103EF000F9D94FF0E0234FF08052C3F8042DBFF3FF
:103F00004F8FBFF36F8FEEE7893E0008D40100208A
:103F100070B504460D46174B1E68174B18680430E1
:103F2000164B9847B4F1FF3F0DD03444124B1B6839
:103F30005C60A64210D9124B18680F4B1968043107
:103F4000104B984770BD002DEFD00B4B1968043112
:103F50000D480E4B9847F5E70D4B1868064B19684E
:103F60000431084B98470B4B1B68A342EAD9094B15
:103F70001C60E7E7C0060020C80100206734000885
:103F8000D001002035340008980600201F340008B6
:103F9000CC0100207806002030B587B00B9C7CB1A6
:103FA0000C9DB5B15C250495049D5C2D1AD04FF095
:103FB000500383F31188BFF36F8FBFF34F8FFEE77A
:103FC0004FF0500383F31188BFF36F8FBFF34F8F10
:103FD000FEE74FF0500383F31188BFF36F8FBFF3F9
:103FE0004F8FFEE70C9D2C63022485F85940002476
:103FF0000394029505AC01940A9C0094034CA047DD
:104000000C98034B9847059807B030BD853C0008D5
:10401000913D00082DE9F04385B005460E46144653
:1040200098469000154A904700B381465C20134B98
:1040300098470746B0B1C0F83090E7B1002387F841
:104040005930039302970D9B01930C9B00934346B9
:104050002246314628460A4CA0473846094B984725
:10406000012005E04846084B9847E6E74FF0FF304F
:1040700005B0BDE8F0834FF0FF30F9E74D50000880
:10408000853C0008913D00084D51000810B588B0EE
:1040900000240594069407AA06A905A81C4B984776
:1040A000059B0293069B019300942346079A1949A6
:1040B00019481A4CA0471A4B186040B1194B984741
:1040C000012806D0B0F1FF3F18D008B010BD002085
:1040D000F6E74FF0500383F31188BFF36F8FBFF300
:1040E0004F8F114B4FF0FF321A60104B01221A60B4
:1040F0000F4B00221A600F4B9847E6E74FF0500332
:1041000083F31188BFF36F8FBFF34F8FFEE700BFBC
:10411000594F0008A45D0008E53E0008993F0008DB
:10412000740600207D4900087806002094060020CF
:10413000C00600208D530008024A13680133136043
:10414000704700BF40060020014B1868704700BF51
:10415000C0060020F8B53A4B1B68002B64D1394BE0
:104160001D6801351D60C5B9374B1B681B6843B11D
:104170004FF0500383F31188BFF36F8FBFF34F8F5E
:10418000FEE7314A1168314B186810601960304AF7
:104190001368013313602F4B98472F4B1B68AB42BA
:1041A00038D900272D4B1B68DB6A03EB83039A0089
:1041B0002B4B9B58012B3CD901273AE00127224B7E
:1041C0001B681B6843B3204B1B68DB68DC686368B3
:1041D0009D4226D3261D3046224B9847A36A1BB129
:1041E00004F118001F4B9847E36A1F4A1268934274
:1041F00001D91D4A136003EB83039A003146184826
:1042000010441A4B9847E26A144B1B68DB6A9A42C7
:10421000D4D2D4E70027D2E70F4B4FF0FF321A6019
:10422000C0E70D4A1360BDE7114A136801331360FC
:104230000027104B1B6803B101273846F8BD00BFAB
:1042400040060020C0060020CC010020D001002044
:104250007C060020593C000878060020C801002098
:10426000D401002067340008480600201F340008ED
:104270003C060020C4060020344B1B6843B94FF0B5
:10428000500383F31188BFF36F8FBFF34F8FFEE7A7
:1042900070B52F4B98472D4B1A68013A1A601B686E
:1042A000002B4ED12B4B1B680BB900244AE0002495
:1042B000294B1B6813B3284BDB68DC6804F118003A
:1042C000264EB047251D2846B047E06A244B1B68A0
:1042D000984201D9224B186000EB80002946214BFF
:1042E00003EB8000204B9847E26A204B1B68DB6A97
:1042F0009A42DDD31E4B01221A60D9E70CB11D4B47
:1043000098471D4B1C6884B9194B1C68D4B14FF0F9
:10431000E0234FF08052C3F8042DBFF34F8FBFF35B
:104320006F8F01240EE0013C07D0144B9847002802
:10433000F9D00F4B01221A60F5E70F4B00221A60EB
:10434000E2E700240E4B9847204670BD400600204F
:1043500075520008340600208006002067340008EB
:1043600048060020D40100201F340008C8010020A6
:10437000C4060020593C00083C06002055410008B6
:10438000B952000810B5A8B10446104B1B6843B1E0
:104390004FF0500383F31188BFF36F8FBFF34F8F3C
:1043A000FEE70B4B9847002120460A4B98470A4BE3
:1043B000984748B94FF0E0234FF08052C3F8042DDE
:1043C000BFF34F8FBFF36F8F10BD00BF40060020BB
:1043D00039410008113F0008794200081F4B1B6853
:1043E0001BB11F4B01221A6070471D4B00221A603F
:1043F0001C4B1B6803EB83018A001B498A585AB97E
:104400000BB1013BF6E74FF0500383F31188BFF384
:104410006F8FBFF34F8FFEE703EB830082000A44E8
:1044200050684068506003EB830C4FEA8C020832FE
:10443000114488420BD003EB830291000A4A0A44DC
:104440005268D168094A1160064A13607047406893
:1044500062469100044A0A445060ECE7400600209E
:10446000C406002048060020D4010020C801002016
:1044700058B110B50C46094A11681831084B9847D5
:1044800001212046074B984710BD4FF0500383F39E
:104490001188BFF36F8FBFF34F8FFEE7C801002075
:1044A00035340008113F000838B570B10D46144688
:1044B0000A4A116818310A4B98470CB14FF0FF3582
:1044C00021462846074B984738BD4FF0500383F3E9
:1044D0001188BFF36F8FBFF34F8FFEE7C801002035
:1044E0001F340008113F000838B5C368DC6824B3E6
:1044F00004F118052846194B9847194B1B682BBB2C
:10450000251D2846154B9847E06A164B1B689842B4
:1045100001D9144B186000EB80002946124B03EBC5
:104520008000124B9847E26A114B1B68DB6A9A4283
:1045300011D901200F4B186038BD4FF0500383F3A1
:104540001188BFF36F8FBFF34F8FFEE729460A48EC
:10455000064B9847E7E70020EEE700BF6734000806
:104560004006002048060020D40100201F34000827
:10457000C8010020C406002080060020034B1B68F1
:104580000360034B1B684360704700BF7C0600203C
:10459000C0060020D8B170B50C46054601B31C4BCF
:1045A00098471C4B19686B68C81A2268B2F1FF3F24
:1045B00027D0194E3668D5F800C0B44501D08B42DB
:1045C00024D9824215D80023236001241AE04FF039
:1045D000500383F31188BFF36F8FBFF34F8FFEE754
:1045E0004FF0500383F31188BFF36F8FBFF34F8FEA
:1045F000FEE75B1A134423602846084B98470024C3
:1046000000E00024064B9847204670BD0124F9E7DE
:1046100075520008C00600207C0600207D45000879
:10462000B9520008014B01221A607047C4060020ED
:10463000054B1B6833B1054B1B680BB1002070475D
:104640000220704701207047940600204006002099
:1046500000283BD038B504461E4B1B68834208D067
:104660004FF0500383F31188BFF36F8FBFF34F8F69
:10467000FEE7036D43B94FF0500383F31188BFF396
:104680006F8FBFF34F8FFEE7013B0365C16AC26CBA
:1046900091421DD00BB1002038BD051D28460E4BA0
:1046A0009847E06CE062C0F13803A3610B4B1B68D4
:1046B000984201D9094B186000EB80002946084B4D
:1046C00003EB8000074B98470120E5E70020704787
:1046D0000020E1E7C80100206734000848060020F8
:1046E000D40100201F34000838B504460D461B4B8A
:1046F00098471B4B1B685B6D2BB9194B1B6801223C
:1047000083F85820ADB9174B9847144B9847144B72
:104710001B685D6D25B1DCB1114B1B6800225A6529
:104720000F4B1B68002283F858200E4B98472846F1
:1047300038BD114628460C4B98474FF0E0234FF008
:104740008052C3F8042DBFF34F8FBFF36F8FDAE7AA
:10475000034B1B686A1E5A65E2E700BF75520008EA
:10476000C8010020B9520008113F0008F8B5D8B1BF
:104770000D4604462B4B9847EFF311864FF050033C
:1047800083F31188BFF36F8FBFF34F8F94F85830C6
:10479000DBB2022284F85820626D01326265012B7F
:1047A0000BD086F31188F8BD4FF0500383F31188C6
:1047B000BFF36F8FBFF34F8FFEE7A36A43B14FF094
:1047C000500383F31188BFF36F8FBFF34F8FFEE762
:1047D000154B1B68E3B9271D3846144B9847E06A10
:1047E000134B1B68984201D9114B186000EB8000F5
:1047F0003946104B03EB80000F4B9847E26A0F4B92
:104800001B68DB6A9A42CCD945B101232B60C8E70B
:1048100004F118010A48084B9847EFE7094B0122B9
:104820001A60BEE7455400084006002067340008BF
:1048300048060020D40100201F340008C8010020D1
:1048400080060020C4060020064B1A681368B3FADD
:1048500083F35B09036013B9D368186870470020BD
:10486000704700BFC806002008B541600061914252
:104870000CD8D21A83699A4201D3012008BD011DC8
:10488000094B1868094B98470020F7E79A4201D274
:10489000994206D2011D064B1868044B9847002028
:1048A000ECE70120EAE700BFCC0600203534000821
:1048B000C806002070B582B0114B9847114B1B6899
:1048C0001BB1114B984702B070BD104D2846104ED9
:1048D000B047104C2046B0470F4B1D600F4B1C607B
:1048E000002300930E4B0F4A10210A200E4CA047C4
:1048F000044B18600028E4D00C490D4B9847E0E7C2
:1049000075520008EC070020B9520008700700201B
:104910000334000884070020C8060020CC060020CD
:104920009C070020D0060020BD360008AC5D0008C2
:10493000CD3B00082DE9F041079E41B94FF05003EF
:1049400083F31188BFF36F8FBFF34F8FFEE70746E6
:1049500015461C4688465EB1064B98473760C6F838
:104960001880F5613462069B7362301D024B9847D4
:10497000BDE8F081B54800081934000810B588B0CA
:10498000134B9847134B1B68CBB100240594069436
:1049900007AA06A905A8104B9847059B0293069BFA
:1049A0000193022300932346079A0C490C480D4CAF
:1049B000A0470D4B186010B1012008B010BD4FF09A
:1049C000500383F31188BFF36F8FBFF34F8FFEE760
:1049D000B5480008EC070020714F0008B45D0008DE
:1049E000654D0008993F0008F00700202DE9F041CF
:1049F00082B004460D4690461E463020094B98472B
:104A0000074658B10190089B009333464246294619
:104A10002046054CA047002387F82C30384602B0CA
:104A2000BDE8F0814D50000835490008B8B19C46FA
:104A300003461848006850B310B584B00091019245
:104A4000029305291CDC144B9847022810D0002340
:104A50001A4669460F480068104CA04715E04FF011
:104A6000500383F31188BFF36F8FBFF34F8FFEE7BF
:104A70000023069A694607480068084CA04704E0EE
:104A8000002362466946064CA04704B010BD0020D2
:104A9000704700BFEC07002031460008AD37000822
:104AA0006539000870B582B01B4B1B681A68002A74
:104AB0002AD0DB681E68DC68251D2846174B9847FE
:104AC000636A20469847E369012BEDD1A36933441B
:104AD0009E4207D26360246129460F4B1868104B31
:104AE0009847E1E7002100910B46324620460D4CE5
:104AF000A0470028D8D14FF0500383F31188BFF3AB
:104B00006F8FBFF34F8FFEE7074A106802490860B6
:104B1000136002B070BD00BFC806002067340008F3
:104B2000353400082D4A0008CC06002038B505466B
:104B3000084B98470446084B1B68834205D800235E
:104B40002B60054B1C60204638BD044B9847012361
:104B50002B60F6E74941000898070020A54A0008A5
:104B600070B582B005460E46144B1B68DB68DC68E6
:104B7000201D134B9847E369012B04D0636A20463C
:104B8000984702B070BDA1692B46324629442046A1
:104B90000C4EB0470028F1D0002100910B462A4668
:104BA0002046094DA8470028E8D14FF0500383F371
:104BB0001188BFF36F8FBFF34F8FFEE7C806002049
:104BC00067340008694800082D4A000870B582B0B3
:104BD00006460C46184B984701A8184B9847019B6E
:104BE0002BBB05460CB9B0421AD22CB1144B1B6832
:104BF0001C68B4FA84F464092246711B114B1868CE
:104C0000114B9847114B984798B94FF0E0234FF05C
:104C10008052C3F8042DBFF34F8FBFF36F8F08E0AE
:104C20000A4B984729463046094B984701E0074B05
:104C3000984702B070BD00BF394100082D4B0008F5
:104C4000CC060020EC070020F53B00087942000864
:104C5000614B000830B589B002E0049B002B0FDAED
:104C6000002204A9384B1868384B9847002869D0AF
:104C7000049B002BF1DA07990698059B9847ECE70F
:104C8000069C636913B1201D314B984703A8314B33
:104C90009847049B092BE3D801A252F823F000BFE8
:104CA000C94C0008C94C0008C94C0008614C0008F8
:104CB0000F4D0008354D0008C94C0008C94C0008CC
:104CC000614C00080F4D0008059BA169024619447C
:104CD0002046214DA8470028C2D0636A2046984745
:104CE000E369012BBCD1A269002100910B46059814
:104CF00002442046194CA0470028B1D14FF0500380
:104D000083F31188BFF36F8FBFF34F8FFEE70599D1
:104D1000A16131B103460246014420460E4CA04732
:104D20009EE74FF0500383F31188BFF36F8FBFF3FB
:104D30004F8FFEE794F82C30002B91D12046084B82
:104D400098478DE709B030BDEC0700203D3A0008D8
:104D5000673400082D4B0008694800082D4A0008F8
:104D60004D51000800B583B001A8044B9847019944
:104D7000034B9847034B9847F6E700BF49480008A4
:104D8000CD4B0008554C0008EFF3058393B9EFF3C2
:104D9000108393B90C4B1868022804D080B90A4BD1
:104DA00001221A607047EFF31183002BF6D06FF0E9
:104DB000050070476FF0050070476FF00500704701
:104DC0004FF0FF30704700BF500A002008B5EFF3E6
:104DD0000583B3B9EFF31083B3B90E4B1B68022BF5
:104DE00008D0012B13D10B4B02221A600A4B9847B3
:104DF000002008BDEFF31182002AF2D06FF0050009
:104E0000F7E76FF00500F4E76FF00500F1E74FF00A
:104E1000FF30EEE7500A00208D400008F0B587B063
:104E200000240494EFF30584002C43D1EFF31083A6
:104E3000002B3FD1334B1B68022B16D0002839D0F2
:104E400000238DF8173062B3156895B1936903B9E3
:104E500018235C1E372C51D8546814F0010F4FD121
:104E600056694EB14FEA960C08E0EFF311830BBB85
:104E7000E4E70DF11705E9E74FF0800C94682CB1D9
:104E8000D7685B2F02D9176907B1B6B914B14FF0D3
:104E9000FF340CE0D46894B914699CB14FF0FF342E
:104EA00005E0002418234FF0800C0DF11705012CAC
:104EB0000AD0ACB1049807B0F0BD0124F7E74FF079
:104EC000FF34F4E70024F2E7146992680292019437
:104ED00000930B46624629460B4CA0470490E9E735
:104EE00004AA019200930B461FFA8CF22946074C44
:104EF000A0470128DED000230493DBE70020DAE797
:104F00000020D8E7500A0020993F0008154000080B
:104F100008B5EFF30583A3B9EFF31083A3B90C4BE6
:104F20001B68022B02D040B9002008BDEFF31183AB
:104F3000002BF8D06FF00500F7E7064B98470020EC
:104F4000F3E76FF00500F0E76FF00500EDE700BF55
:104F5000500A002085430008034B0360034B0B609D
:104F600080231360704700BFF4090020F40700207D
:104F7000034B0360034B0B604FF480731360704767
:104F8000540E0020540A0020124A12F0070F1ED0BF
:104F9000D11D21F00701C1F5805313440A460E4884
:104FA0000260002141601344083B23F007030B48D3
:104FB000036059601960991A51601360084B1960B9
:104FC000084B1960084B4FF000421A6070474FF4CD
:104FD0008053E4E7B40E0020C01E0020B00E002075
:104FE000BC1E0020B81E0020B41E0020154B1A461F
:104FF0001B688342FBD3516802EB010C844509D046
:10500000416800EB010C634509D00360904218D061
:10501000106070474068014451601046F0E710B4DA
:10502000094C2468A3420AD05B68194441601368A4
:105030001B680360904200D0106010BC7047046091
:10504000F8E77047C01E0020B00E002070B505467E
:10505000354B9847354B1B68A3B1354B1B681D4238
:105060004AD135B1083515F0070F02D025F00705F4
:105070000835002D42D02F4B1B68AB424DD32E4A32
:10508000146804E02D4B9847E7E722461C46636806
:10509000AB4202D22368002BF7D1244B1B68A342FA
:1050A0003DD0166808362368136063685B1B102BBD
:1050B00010D9601910F0070F08D04FF0500383F398
:1050C0001188BFF36F8FBFF34F8FFEE743606560BA
:1050D0001B4B9847626817490B689B1A0B6019496C
:1050E00009688B4201D217490B60114B1B681343AF
:1050F00063600023236002E0002600E00026124BDC
:10510000984716F0070F0CD04FF0500383F3118827
:10511000BFF36F8FBFF34F8FFEE70026EFE7002648
:10512000EDE7304670BD00BF39410008B00E0020E9
:10513000B41E0020B81E0020C01E0020894F0008A9
:10514000ED4F0008BC1E002079420008002830D036
:1051500038B50446A0F1080550F8043C154A126819
:10516000134208D14FF0500383F31188BFF36F8FC0
:10517000BFF34F8FFEE750F8081C41B14FF05003CA
:1051800083F31188BFF36F8FBFF34F8FFEE723EADE
:10519000020340F8043C084B984754F8041C074AA3
:1051A00013680B4413602846054B9847054B9847F6
:1051B00038BD7047B41E002039410008B81E0020D9
:1051C000ED4F00087942000882B0002301930D4B97
:1051D0001B68B3F1FF3F08D04FF0500383F31188F1
:1051E000BFF36F8FBFF34F8FFEE74FF0500383F392
:1051F0001188BFF36F8FBFF34F8F019B002BFCD043
:1052000002B070470C00002006480068006880F378
:10521000088862B661B6BFF34F8FBFF36F8F00DFB0
:1052200000BF000008ED00E04FF0807340F8043C40
:1052300021F0010140F8081C034B40F80C3C40F8F9
:10524000202C4038704700BFC95100080000000002
:10525000074B19680868B0E8F00F80F30988BFF3BE
:105260006F8F4FF0000080F311884EF00D0E7047E5
:10527000C80100204FF0500383F31188BFF36F8FF4
:10528000BFF34F8F0B4A136801331360012B00D01B
:1052900070474FF0E023D3F8043D13F0FF0FF7D031
:1052A0004FF0500383F31188BFF36F8FBFF34F8F1D
:1052B000FEE700BF0C000020094B1B6843B94FF00C
:1052C000500383F31188BFF36F8FBFF34F8FFEE757
:1052D000013B034A13600BB983F31188704700BF89
:1052E0000C00002000000000000000000000000092
:1052F000EFF30980BFF36F8F0D4B1A6820E9F00FB1
:1053000010602DE908404FF0500080F31188FFF73E
:1053100065F84FF0000080F31188BDE80840196877
:105320000868B0E8F00F80F30988BFF36F8F70470B
:10533000C801002008B54FF0500383F31188BFF374
:105340006F8FBFF34F8F064B984728B14FF0E02384
:105350004FF08052C3F8042D002383F3118808BD59
:10536000554100084FF0E022002313619361054B83
:105370001B680549A1FB03139B09013B53610723EC
:105380001361704708000020D34D621010B582B041
:10539000244B1A78D2B20192FF221A701B78DBB22A
:1053A0008DF803309DF8033003F050031E4A13704C
:1053B0001E4B07221A6009E01C4A1368013B136068
:1053C0009DF803305B00DBB28DF803309DF80330AD
:1053D00013F0800FF0D1154A13681B02136003F419
:1053E000E0631360019BDBB20E4A13704FF0E023C1
:1053F000D3F8202D42F47002C3F8202DD3F8202DCD
:1054000042F07042C3F8202D094B98470024094B05
:105410001C60094B9847094B9847094B9847204611
:1054200002B010BD00E400E0C81E0020CC1E002029
:10543000655300080C00002009520008DD430008F5
:10544000C9510008EFF305830F2B0FD9114A9B5C5C
:10545000DBB2114A12789A4208D94FF0500383F315
:105460001188BFF36F8FBFF34F8FFEE74FF0E0233C
:10547000D3F80C3D03F4E063084A1268934208D95C
:105480004FF0500383F31188BFF36F8FBFF34F8F3B
:10549000FEE77047F0E300E0C81E0020CC1E0020AD
:1054A00000B585B000230193029303931148124A7B
:1054B00002608360037303754FF46022C26143602E
:1054C000012303610D4B984768B90723019301231A
:1054D00002930023039301A90648094B984728B972
:1054E00005B05DF804FB074B9847EEE7054B98477E
:1054F000F6E700BFD01E002000240140C559000877
:10550000A55600084915000800B587B0002302938E
:105510000393049305930268154B9A4202D007B097
:105520005DF804FB03F56C439A6942F400729A61DA
:105530009A6902F400720092009A9A6942F0040299
:105540009A619B6903F004030193019B80230293FA
:105550000323039302A90748074B9847002205211C
:105560001220064B98471220054B9847D7E700BFFB
:1055700000240140000801400523000845260008DA
:10558000B52600080368D86C7047704710B504460C
:1055900003685A6812F0200F18D01A6812F0020F30
:1055A00014D0826A12F0100F03D1826A42F40072A2
:1055B00082629A6802F46022B2F5602F38D02046E9
:1055C000354B984723686FF012021A6023685A68B7
:1055D00012F0800F22D01A6812F0040F1ED0A26AB7
:1055E00012F0100F03D1A26A42F40052A2629A682C
:1055F00002F4E042B2F5E04F31D05A6812F4806F05
:1056000005D19A6802F46022B2F5602F24D02046BA
:10561000224B984723686FF00C021A6023685A687F
:1056200012F0400F03D01B6813F0010F28D110BDFA
:10563000227B002AC3D15A6822F020025A60A36A52
:1056400023F48073A362A36A13F4805FB7D1A36AC3
:1056500043F00103A362B2E7227B002AD7D15A6844
:1056600022F080025A60A36A23F48053A362A36AE3
:1056700013F4807FCBD1A36A43F00103A362C6E792
:10568000A36A43F48033A3622046054B98472368FE
:105690006FF001021A60CAE7C90E0008D55A000867
:1056A0008B55000830B482B00022019290F824207B
:1056B000012A00F091800346012280F824204A68E4
:1056C000062A2DD80468606B02EB8202053A4FF07F
:1056D0001F0C0CFA02FC20EA0C000D6805FA02F21D
:1056E000024362630A68092A3AD91C68E06802EB3F
:1056F00042021E3A4FF0070C0CFA02FC20EA0C00A2
:105700008D6805FA02F20243E2600A68103A012A43
:1057100036D90020002283F8242002B030BC704724
:105720000C2A0ED80568286B02EB8202233A1F244C
:10573000944020EA04000C6804FA02F202432A634F
:10574000D0E70568E86A02EB8202413A1F249440E0
:1057500020EA04000C6804FA02F20243EA62C1E79C
:105760001C68206902EB42024FF0070C0CFA02FCA5
:1057700020EA0C008D6805FA02F202432261C4E7B8
:105780001A681648824205D09A6A42F020029A624C
:105790000120BFE7906810F4000F1BD1906840F41F
:1057A000000090600A68102A01D00020B2E70C4A7D
:1057B00012680C49A1FB0212920C02EB8202520009
:1057C000019202E0019A013A0192019A002AF9D16C
:1057D00000209FE700209DE702209EE70024014073
:1057E0000800002083DE1B4330B583B00023019303
:1057F00003689A6812F0010F33D104469A6842F0A8
:1058000001029A60184B1B68184AA2FB03239B0CE9
:10581000019302E0019B013B0193019B002BF9D115
:10582000134B9847054623689B6813F0010F16D168
:105830000F4B9847431B022BF5D923689B6813F045
:10584000010FF0D1A36A43F01003A362E36A43F0AF
:105850000103E362002384F82430012002E00020E9
:1058600000E0002003B030BD0800002083DE1B43B1
:105870001D1B000890F82430012B6DD010B5044694
:10588000012380F82430354B9847002860D1A36A63
:1058900023F4706323F0010343F48073A36223684D
:1058A0002F4A93422CD0A26A22F48012A2625A6834
:1058B00012F4806F05D0A26A22F4405242F4805262
:1058C000A262A26A12F4805F30D0E26A22F006027D
:1058D000E262002284F824206FF002021A6022683B
:1058E000536843F02003536023689A6802F46022EF
:1058F000B2F5602F1DD09A6842F480129A602AE0B7
:10590000A2F58062526812F4702FCCD0A26A42F4E1
:105910008012A262134A526812F4806FD1D0A26A38
:1059200022F4405242F48052A262CAE70022E262AC
:10593000CFE70B4A934204D09A6842F4A0029A60DF
:1059400009E0A2F58062526812F4702FD3D1F3E718
:10595000002384F8243010BD02207047E957000866
:10596000002801400024014038B503689A6812F00D
:10597000010F01D1002038BD04469A6822F00102CF
:105980009A600F4B9847054623689B6813F0010FF8
:1059900013D00B4B9847431B022BF5D923689B6808
:1059A00013F0010FF0D0A36A43F01003A362E36A7F
:1059B00043F00103E3620120DDE70020DBE700BFE5
:1059C0001D1B000800287BD070B50446836A002B9D
:1059D0004DD020463B4B9847A36A13F0100369D182
:1059E000002867D1A26A22F4885222F0020242F013
:1059F0000202A2626268E1690A43217B42EA410233
:105A0000A568B5F5807F02D0012D36D01D46267DD4
:105A1000012E35D02668716821F4694129437160EF
:105A20002568AE68284931401143A960A168B1F5E5
:105A3000807F01D0012902D12369013B1B05256824
:105A4000E96A21F470010B43EB62236899681F4BEC
:105A50000B409A4225D0A36A23F0120343F01003AF
:105A6000A362E36A43F00103E362012027E0C3621B
:105A700080F82430164B9847ABE74FF48075C6E7A3
:105A800031B9A169013945EA413141F40065C1E705
:105A9000A16A41F02001A162E16A41F00101E162E5
:105AA000B8E70023E362A36A23F0030343F0010392
:105AB000A36204E0A36A43F01003A362012070BD57
:105AC0000120704769590008FDF7E1FFFE0E1FFF36
:105AD00009550008704700000C480D490D4A002385
